:020000040800F2
:1000000050360120450400084D0400084F04000844
:1000100051040008530400085504000800000000C3
:1000200000000000000000000000000015030008B0
:100030005904000800000000CD0300083104000846
:100040005F0400085F0400085F0400085F04000804
:100050005F0400085F0400085F0400085F040008F4
:100060005F0400085F0400085F0400085F040008E4
:100070005F0400085F0400085F0400085F040008D4
:100080004D0C0008610C00085F040008000000002F
:100090000000000000000000000000005F040008F5
:1000A0005F0400085F0400085F0400085F040008A4
:1000B0005F040008E51D00085F0400085F040008F5
:1000C0005F0400085F0400085F0400085F04000884
:1000D0005F040008652100080523000800000000F7
:1000E0005F0400085F0400085F04000800000000CF
:1000F0000000000000000000000000005F04000895
:10010000000000005F0400085F0400085F040008AE
:1001100000000000000000000000000000000000DF
:100120005F040008750C0008890C00085F040008D3
:100130005F04000800000000000000000000000054
:100140000000000000000000000000005F04000844
:100150005F0400089D0C0008B10C0008F52400089D
:100160005F0400085F0400080000000000000000B9
:10017000000000000000000000000000000000007F
:10018000000000005F040008000000000000000004
:100190005F04000800F002F800F067F80AA090E899
:1001A000000C82448344AAF10107DA4501D100F032
:1001B0005CF8AFF2090EBAE80F0013F0010F18BF98
:1001C000FB1A43F0010318477CEF00009CEF00008E
:1001D0000A444FF0000C10F8013B13F0070408BF6D
:1001E00010F8014B1D1108BF10F8015B641E05D00B
:1001F00010F8016B641E01F8016BF9D113F0080FC0
:100200001EBF10F8014BAD1C0C1B09D16D1E58BF51
:1002100001F801CBFAD505E014F8016B01F8016B88
:100220006D1EF9D59142D6D37047000000230024FB
:1002300000250026103A28BF78C1FBD8520728BFF6
:1002400030C148BF0B607047642900F015827829DF
:1002500000F04E82732900F0C684002070471FB55D
:100260000DF074FB1FBD10B510BD00F0C7FC1146AA
:10027000FFF7F5FF0FB400F00BF80FBC08F01AFA07
:1002800000F0FEFA03B4FFF7EEFF03BC00F0B0FC91
:1002900004B008F06FFB0448002108F05DFC08F092
:1002A0007BFB00F0EDFA000074EE000880F3098893
:1002B0007047EFF309807047684680F30988044867
:1002C0000078C00714BF0220032080F31488704711
:1002D00034EE0008DFF818C0EFF305831B0618BFE3
:1002E0006047EFF31483DB0708BF604700DF704708
:1002F000958E0008DFF818C0EFF305831B0618BFC2
:100300006047EFF31483DB0708BF604700DF7047E7
:1003100011910008EFF30980816911F8021CE1BB1B
:1003200090E80F1010B5E047BDE81040EFF3098CDE
:100330008CE80700214B93E80600914208BF704704
:1003400041B91EF0100F16D11D49086820F00100B8
:10035000086010E01EF0100F06BF2CED108A01207F
:10036000002081F825002CE9F00FC1F828C00CB45A
:1003700009F0CCFA0CBC1A60D2F828C0BCE8F00F27
:1003800092F8250000280EBF6FF0020E6FF0120EDB
:10039000BCEC108A8CF30988704710B5094A1268C2
:1003A000914209D8084C54F8214090E80F10A0471A
:1003B000EFF3098C8CE80F0010BD0000D001002085
:1003C00034EF00E0480C0008480C000810B509F0B4
:1003D00061F9BDE81040154B93E80600914208BF53
:1003E0007047EFF3098C1EF0100F06BF2CED108A3A
:1003F0000120002081F825002CE9F00FC1F828C069
:100400000CB409F083FA0CBC1A60D2F828C0BCE81E
:10041000F00F92F8250000280EBF6FF0020E6FF06B
:10042000120EBCEC108A8CF309887047D0010020B2
:1004300010B509F033FBCCE710B508F021FC09F04A
:100440002DFBC6E70948804709480047FEE7FEE75D
:10045000FEE7FEE7FEE7FEE7FEE7FEE7FEE7FEE774
:1004600004480549054A064B70470000811D0008F5
:1004700095010008503001205036012050320120F3
:100480005032012000487047EC2F012053EA020C43
:1004900000F069802DE9F04B4FF00006002B1FBFE4
:1004A000B3FA83F503FA05F424FA05F65E4012BFA9
:1004B0001643B2FA82F502FA05F4C5F120051EBF13
:1004C00022FA05FC44EA0C04203556EA044C4FEAB3
:1004D000144418BF641C4FF000084FF0000990420C
:1004E00071EB030C39D3002919BFB1FA81F701FA76
:1004F00007F6B0FA80F700FA07F6C7F120071EBF2B
:1005000020FA07FC46EA0C062037B6FBF4FCA7EB02
:100510000507103F07F01F0BCBF120060CFA0BFB71
:100520002CFA06F644BFB3460026202FA4BF5E4631
:100530004FF0000B5BEA060C08BF4FF0010B19EB04
:100540000B09ABFB027C48EB0608C01B06FB02CC88
:100550000BFB03CC71EB0C01C1E70B460246414695
:100560004846BDE8F08B13B54FF000004FF0000196
:10057000AFF30080BDE81C40704700000FB41CB50D
:10058000074B06AA7B4469460090059800F0F9FAEB
:100590000020694600F008FB1CBC5DF814FB00005D
:1005A000210600000FB41CB50C0007AA009001D072
:1005B0002044401E074B7B4469460190069800F09A
:1005C000E0FA002C03D06946002000F0EDFA1CBCD4
:1005D0005DF814FBF905000070B5044685690068F4
:1005E000C10601D5302600E02026C00707D070BD27
:1005F000D4E9012130469047206A401C20626D1EDC
:10060000F6D570BD70B5044685690078C00707D17E
:1006100070BDD4E9012120209047206A401C20624F
:100620006D1EF6D570BD70B50C460546012A05D085
:100630002878800600D5EA69002302E0012305E05E
:100640005B1C934202D2E05C0028F9D1A869E6184D
:10065000C01AA861286A184428622846FFF7BCFF20
:1006600004E0D5E9012114F8010B9047B442F8D316
:100670002846FFF7C7FF70BD2DE9F041064600246C
:1006800010687529314616A510D0AFF300800028F8
:1006900002DA404213A507E031688A0701D512A5A6
:1006A00002E0490704D511A5012401E0AFF3008061
:1006B00000210A2206F1240709E0B0FBF2FCB0FB9E
:1006C000F2F302FB1C00303078541846491C002815
:1006D000F3D123462A463046BDE8F04100F0F3B995
:1006E000000000002D0000002B0000002000000092
:1006F00070B504460D4621461068AFF3008021888E
:10070000090502D50F4A7A4402E00E4A7A440E32B5
:10071000002104F1240305E000F00F060009965DB6
:100720005E54491C0028F7D120780023000704D527
:10073000702D02D009B1022311322046BDE870406D
:1007400000F0C1B99AE900002DE9F05F894604463E
:100750004FF0000ADFF824B1FB44C0F820A0204687
:10076000E168884700287DD0252806D0D4E90121FA
:100770009047206A401C2062F1E700255F46204632
:10078000E16888472028064607DB312E05D2B819D4
:1007900010F8200C08B10543F1E7A80701D525F0B2
:1007A0000405C4F81CA00027C4F818A02A2E09D0FC
:1007B000304607F030FB38B304EB8708303EC8F80A
:1007C000186019E059F8041B204604EB8702916178
:1007D000E1688847012F064618D1E069002820DA31
:1007E00025F020051DE0D8F8180000EB800006EB8E
:1007F00040003038C8F818002046E16888470646AF
:1008000007F009FB0028EED1012F0AD02E2E08D1C7
:100810002046E16888477F1C0646022F45F02005E8
:10082000C4DBA069002803DA404245F00105A0615D
:10083000E80701D025F01005A6B1A6F1410019285E
:1008400002D8203645F400654A46314620462560E8
:100850004D46FFF7F9FC60B1012807D0ED1D25F0EA
:10086000070000E007E000F1080978E705F1040956
:1008700075E730467AE7206ABDE8F09F70E900002E
:1008800010B50446AFF300802046BDE81040FFF7E6
:10089000F9BC40EA010310B59B070FD1042A0DD320
:1008A00010C808C9121F9C42F8D020BA19BA884251
:1008B00001D9012010BD4FF0FF3010BD1AB1D30790
:1008C00003D0521C07E0002010BD10F8013B11F8C6
:1008D000014B1B1B07D110F8013B11F8014B1B1BEF
:1008E00001D1921EF1D1184610BD10B5431C02E093
:1008F00010F8011B71B18107FAD14FF0013202C823
:100900008C1A8C4314EAC211F9D0C01A0A0603D01B
:10091000C01E10BDC01A10BD0A0401D0801E10BD3B
:100920000902FCD0401E10BD421E12F8013F002BF0
:10093000FBD111F8013B002B02F8013BF9D17047C4
:10094000032A40F2308010F0030C00F0158011F8FB
:10095000013BBCF1020F624498BF11F801CB00F8D3
:10096000013B38BF11F8013BA2F1040298BF00F827
:1009700001CB38BF00F8013B11F0030300F02580E4
:10098000083AC0F0088051F8043B083A51F804CB0B
:10099000A0E80810F5E7121D5CBF51F8043B40F8D1
:1009A000043BAFF30080D20724BF11F8013B11F8DC
:1009B00001CB48BF11F8012B24BF00F8013B00F820
:1009C00001CB48BF00F8012B704710B5203AC0F0AA
:1009D0000B80B1E81850203AA0E81850B1E8185040
:1009E000A0E81850BFF4F5AF5FEA027C24BFB1E87D
:1009F0001850A0E8185044BF18C918C0BDE81040EE
:100A00005FEA827C24BF51F8043B40F8043B08BFF6
:100A10007047D20728BF31F8023B48BF11F8012BBD
:100A200028BF20F8023B48BF00F8012B70474FF069
:100A300000020429C0F0128010F0030C00F01B80AB
:100A4000CCF1040CBCF1020F18BF00F8012BA8BFB9
:100A500020F8022BA1EB0C0100F00DB85FEAC17C7D
:100A600024BF00F8012B00F8012B48BF00F8012B30
:100A700070474FF0000200B5134694469646203961
:100A800022BFA0E80C50A0E80C50B1F12001BFF447
:100A9000F7AF090728BFA0E80C5048BF0CC05DF8AD
:100AA00004EB890028BF40F8042B08BF704748BFFB
:100AB00020F8022B11F0804F18BF00F8012B70476F
:100AC0007047704770472DE9F0470D4699469246AA
:100AD000044600F124080168880604D5E06921F085
:100AE0001001216000E00120A84201DD471B00E069
:100AF0000027A1697A1902EB0900081AA061207881
:100B0000C00602D42046FFF767FD002608E0D4E9BE
:100B100001211AF806009047206A401C761C2062CA
:100B20004E45F4DB2078C0060AD52046FFF754FD79
:100B300006E0D4E9012130209047206A401C206261
:100B4000381EA7F10107F4DC07E0D4E9012118F809
:100B500005009047206A401C2062281EA5F101056F
:100B6000F3DC2046FFF74EFD2078000602D5022078
:100B7000BDE8F0870120FBE701694A1C02610878A3
:100B8000704700B58FB0CDE90131002105910549CD
:100B90007944CDE9031011466846FFF7D5FD0FB043
:100BA00000BD0000E5FFFFFF0A6802F8010B0A60C4
:100BB0007047D1E900239A4202D2531C0B60107097
:100BC000704710B5436913B1AFF3008001E0FFF740
:100BD0002AFD012010BD127800F124010A700022C4
:100BE0004A700122EDE711684FF0FF32E9E700009B
:100BF00001491820ABBEFEE7260002007546FFF74C
:100C000041FCAE4605006946534620F00700854684
:100C100018B020B5FFF724FCBDE820404FF00006D7
:100C20004FF000074FF000084FF0000B21F00701D4
:100C3000AC46ACE8C009ACE8C009ACE8C009ACE817
:100C4000C0098D46704770470000000010B51020A5
:100C500000F0FEFD014800F031FA10BD482E0120E1
:100C600010B5112000F0F4FD014800F027FA10BD86
:100C7000F02D012010B5392000F0EAFD014800F008
:100C80001DFA10BD302F012010B53A2000F0E0FD14
:100C9000014800F013FA10BD602D012010B5452069
:100CA00000F0D6FD014800F009FA10BDD82E012051
:100CB00010B5462000F0CCFD014800F0FFF910BD52
:100CC000082D01200146087810381823B0FBF3F2F4
:100CD0000848805C4865032A05D908686FF3090055
:100CE000001D086503E008686FF309000865086DDA
:100CF000704700008CF0000830B50468246824F4C4
:100D0000802405682C60046863608468402C04D1EA
:100D10000468A2600468E16003E00468A1600468FC
:100D2000E26030BD2DE9F041C8260024002500F026
:100D3000BBF84949087009F0A5FA484908704848C5
:100D400000784549097888420DD046480078C8287F
:100D500005DA44480078401C4249087003E000204E
:100D6000404908700125002D74D000253C480078CA
:100D70003949097880EA0104374800783849087011
:100D800080213948FFF753FE3548037837A2802188
:100D90003548FFF707FC3448FFF7A7FD07463848FA
:100DA00039464269304890470A2007F0D7FD0222B1
:100DB0001421032007F0CEF809F0E4FE04F001004E
:100DC00010B32748007800F0010018B101202D4928
:100DD000087002E000202B49087080212248FFF7AC
:100DE00026FE2848037828A280211F48FFF7DAFB57
:100DF0001D48FFF77AFD07462148394642691A48DF
:100E000090470A2007F0AAFD04F0020000B100BFDD
:100E100004F00C00D8B112480078C0F3810030B162
:100E2000012808D002280AD0032811D10BE03B206A
:100E30001C4908700DE039201A49087009E03A2071
:100E40001849087005E03B201649087001E001E0F0
:100E500000BF00BFBDE8F081340100201600002073
:100E60004C0100204D010020FC11002044636F6400
:100E700065206368673A20253032582E0A0000004A
:100E8000E4EF00085900002077696669206366670F
:100E9000206D6574686F64206368673A25642E0A64
:100EA000000000001700002010B500244FF400419E
:100EB0000E4800F00DFC08B944F001044FF48071B5
:100EC0000B4800F005FC08B944F002044021074833
:100ED00000F0FEFB08B944F004042021034800F0B0
:100EE000F7FB08B944F00804204610BD0004024096
:100EF0000000024008B5394988420FD100BF0021E7
:100F000000913749096841F00101354A11601146E5
:100F1000096801F00101009100BF00BF314988421A
:100F20000FD100BF002100912D49096841F0020155
:100F30002B4A11601146096801F00201009100BFBF
:100F400000BF294988420FD100BF002100912449E8
:100F5000096841F00401224A11601146096801F054
:100F60000401009100BF00BF204988420FD100BF9B
:100F7000002100911A49096841F00801184A1160DE
:100F80001146096801F00801009100BF00BF18492F
:100F900088420FD100BF002100911149096841F03A
:100FA00010010F4A11601146096801F0100100910B
:100FB00000BF00BF0F4988420FD100BF0021009140
:100FC0000749096841F08001054A11601146096826
:100FD00001F08001009100BF00BF08BD0000024089
:100FE000303802400004024000080240000C024079
:100FF00000100240001C024070B504460025206825
:10100000006820F001002168086000F06FFB0546D1
:1010100012E000F06BFB401BB0F57A7F0CD9E06C5E
:1010200040F02000E06400BF002084F8340000BFDE
:10103000032084F8350070BD2068006800F00100CE
:101040000028E6D100BF84F8340000BF012084F8F6
:1010500035000020EFE770B504460CB9012070BDE3
:1010600094F83500022801D10120F8E720680068D3
:1010700020F00100216808600020216808602168D4
:101080004860216888602168C86021680861212063
:10109000216848612046FFF715FE054694F8541074
:1010A0003F208840A8600020E06484F8350000BF3D
:1010B00084F8340000BF00BFD1E7000070B50446DB
:1010C000256D286894F8542008219140084000B309
:1010D0002068006800F00400D8B12068006820F0A3
:1010E00004002168086094F8541008208840A86023
:1010F000E06C40F00100E064042084F8350000BF9B
:10110000002084F8340000BFA06C10B12046A16C10
:101110008847286894F854206D499140084000B3EE
:101120002068406900F08000D8B12068406920F054
:1011300080002168486194F8541065488840A86090
:10114000E06C40F00200E064042084F8350000BF49
:10115000002084F8340000BFA06C10B12046A16CC0
:101160008847286894F854205949C91C9140084080
:1011700008B32068006800F00200E0B12068006851
:1011800020F002002168086094F854105048C01CF8
:101190008840A860E06C40F00400E064042084F81B
:1011A000350000BF002084F8340000BFA06C10B1EF
:1011B0002046A16C8847286894F85420102191405B
:1011C0000840C0B32068006800F0080098B32068A9
:1011D000006800F48020B0B194F8541010208840CA
:1011E000A8602068006800F4002018B9312084F855
:1011F00035001BE02068006800F40020B0B14120F9
:1012000084F8350012E02068006800F4807028B986
:101210002068006820F008002168086094F85410E5
:1012200010208840A860312084F83500206C10B16F
:101230002046216C8847286894F85420202191404A
:10124000084018B32068006800F01000F0B1206872
:10125000006800F48020D0B194F854102020884019
:10126000A8602068006800F4002028B9606C68B1AC
:101270002046616C884729E02068006800F400205F
:1012800020B1E06B10B12046E16B88471EE020687A
:10129000006800F4807028B92068006820F0100011
:1012A0002168086094F8541020208840A860E06C01
:1012B000E064112084F8350000BF002084F8340079
:1012C00000BFE06B10B12046E16B884770BD0000A5
:1012D0000100800070B5044600250CB9012070BDE6
:1012E000606A00B100BF022084F8350020680568FC
:1012F00018480540D4E901010843E1680843216921
:10130000084361690843A1690843E1690843216A08
:1013100008430543606A042803D1D4E90B0108435C
:101320000543206805602068456925F00705606A67
:101330000543606A042801D1A06A0543206845611D
:101340002046FFF7BFFC0020E064012084F8350050
:101350000020C4E73F8010F02DE9F04104460D461F
:1013600016461F4600BF94F83400012802D102201F
:10137000BDE8F081012084F8340000BF022084F829
:1013800035002068006820F00100216808603B46B5
:10139000324629462046FFF7AFFC2068006840F03F
:1013A0001E00216808602068406940F080002168C4
:1013B00048612068006840F0010021680860002052
:1013C000D6E70000F0B50C460025002200230021DE
:1013D00081E0012606FA01F504EA0502AA4279D164
:1013E00006684FEA410C032707FA0CF7BE43066074
:1013F000CF0800F1200656F827604F074FEAD76C58
:101400000F2707FA0CF7BE434FEAD10C00F1200773
:1014100047F82C6086684FEA410C032707FA0CF75F
:10142000BE438660476801268E40B7434760C66862
:101430004FEA410C032707FA0CF7BE43C660284E5B
:101440008F0856F827308E07370F0F26BE403340DF
:10145000244EB04201D1002614E0234EB04201D107
:1014600001260FE0214EB04201D102260AE0204EB3
:10147000B04201D1032605E01E4EB04201D1042640
:1014800000E005268F073F0FBE409E4222D18E0707
:10149000370F0F2606FA07F3114E8F0856F827600C
:1014A0009E430F4F4FEA910C47F82C60124E36685E
:1014B0009643114F3E603E1D366896433F1D3E6089
:1014C0003E1D366896433F1D3E603E1D366896437E
:1014D0003F1D3E60491C1029FFF47BAFF0BD0000AA
:1014E00008380140000002400004024000080240A9
:1014F000000C024000100240003C0140F8B50346D9
:101500000A460025002400200021CDE0012606FA2D
:1015100001F5166806EA0504AC4273D15668022E3E
:1015200002D05668122E13D1CF0803F1200656F8C8
:1015300027004E07F70E0F26BE40B0434F07FF0EA1
:101540001669BE403043CF0803F1200646F8270055
:1015500018684F000326BE40B043167906F0030614
:101560004F00BE40304318605668012E08D05668C0
:10157000022E05D05668112E02D05668122E13D1B5
:1015800098684F000326BE40B0434F00D668BE4067
:1015900030439860586801268E40B0431679C6F3F0
:1015A00000168E4030435860D8684F000326BE4076
:1015B000B0434F009668BE403043D860566806F08E
:1015C0008056B6F1805F6ED100BF00260096384E7F
:1015D000366846F48046364F3E603E46366806F42E
:1015E0008046009600BF00BF324E8F0856F8270095
:1015F0008E07370F0F26BE40B0432F4EB34202D1A5
:10160000002615E04FE02D4EB34201D101260FE038
:101610002B4EB34201D102260AE02A4EB34201D139
:10162000032605E0284EB34201D1042600E005263A
:101630008F073F0FBE4030431E4E8F0846F82700ED
:10164000224E3068A043566806F48036B6F5803FD7
:1016500000D120431D4E3060361D3068A0435668CF
:1016600006F40036B6F5003F00D12043174E361D74
:101670003060361D3068A043566806F48016B6F513
:10168000801F00D12043114E08363060361D30686F
:10169000A043566806F40016B6F5001F00D120439B
:1016A0000A4E0C363060491C1029FFF42FAFF8BDEC
:1016B0004438024008380140000002400004024063
:1016C00000080240000C024000100240003C0140B3
:1016D000024613690B400BB1012000E00020704767
:1016E0000AB1816101E00B04836170470148006821
:1016F00070470000C001002010B504460CB901205D
:1017000010BD607B20B900202073204600F01AF83D
:101710000220607345F255502168086020684068D7
:1017200020F00700616808432168486020688068ED
:101730006FF30B00A1680843216888600120607383
:101740000020DDE7704770B50446002500BF207B10
:10175000012801D1022070BD0120207300BF0220AA
:101760006073FFF7C3FF05460DE0FFF7BFFF401BA7
:10177000B0F57A7F07D90320607300BF0020207383
:1017800000BF0320E7E72068C068C0F340000028DE
:10179000EBD14AF6AA20216808600120607300BFDF
:1017A0000020207300BF00BFD5E7014600BF087BC3
:1017B000012801D1022070470120087300BF0220D8
:1017C00048734CF6CC400A6810604AF6AA200A68B2
:1017D00010600120487300BF0020087300BF00BFE5
:1017E000E9E7000010B50D48006840F400700B49AF
:1017F00008600846006840F4806008600846006899
:1018000040F480700860032000F0A4F80F2000F07E
:1018100007F800F017F8002010BD0000003C02405F
:1018200070B5044600F0CCF84FF47A71B0FBF1F5D6
:10183000284600F067F900222146501E00F04CF8BF
:10184000002070BD08B50020009000BF08BD00005A
:1018500010B501460846002807DB00F01F030122EF
:101860009A40034B440943F8242000BF10BD0000F8
:1018700080E200E010B501460846002817DB00F0C2
:101880001F0301229A400B4B440943F8242000BF58
:1018900000BF00BFBFF34F8F00BF00BF00BF00BF3E
:1018A00000BF00BFBFF36F8F00BF00BF00BF00BF0E
:1018B00010BD000080E100E001460846002809DB79
:1018C00000F01F0301229A4043099B0003F1E0232B
:1018D000C3F8002100BF70472DE9F05F80460D4638
:1018E0001646002706F058FA074639462A46334678
:1018F00001F00700C0F1070ABAF1040F02D94FF056
:10190000040A01E0C0F1070AD14600F1040ABAF165
:10191000070F02D24FF0000A01E0A0F1030AD446FB
:101920004FF0010A0AFA09FAAAF1010A0AEA020AC0
:101930000AFA0CFA4FF0010B0BFA0CFBABF1010B9E
:101940000BEA030B4AEA0B042146404606F02CFA48
:10195000BDE8F09F00BF00F00702064B19684FF684
:10196000FF031940044B0B4343EA0221014B19606A
:1019700000BF70470CED00E00000FA0500BF00BF9B
:1019800000BF00BF00BFBFF34F8F00BF00BF00BF4D
:101990000948006800F4E06008490843001D064952
:1019A000086000BF00BF00BFBFF34F8F00BF00BF84
:1019B00000BF00BF00BFFDE70CED00E00000FA052E
:1019C00010B500F045F80949096801F0F001F0226E
:1019D00092FAA2F2B2FA82F2D140054A515CC840B2
:1019E000044908600846006810BD0000083802403D
:1019F00094F00008C401002010B5FFF7E1FF07498B
:101A0000096801F4E0514FF4E05292FAA2F2B2FAFE
:101A100082F2D140024A515CC84010BD08380240F1
:101A200094F0000810B5FFF7CBFF0749096801F4EF
:101A300060414FF4604292FAA2F2B2FA82F2D140CF
:101A4000024A515CC84010BD0838024094F00008BA
:101A500070B50021002200230020274C246804F0E8
:101A60000C0424B1042C04D0082C41D103E02348F9
:101A700040E023483EE0204C241F246804F03F014E
:101A80001D4C241F246804F4800484B11C4CB4FB56
:101A9000F1F5194C241F246847F6C076344096FAB5
:101AA000A6F6B6FA86F6F44005FB04F20FE0134CF6
:101AB000B4FBF1F5104C241F246847F6C07634407F
:101AC00096FAA6F6B6FA86F6F44005FB04F20A4C3E
:101AD000241F246804F440344FF4403595FAA5F5EA
:101AE000B5FA85F5EC40641C6300B2FBF3F001E04D
:101AF000024800BF00BF70BD083802400024F40057
:101B000000127A0070B504462546681EB0F1807F49
:101B100001D301200FE0681E4FF0E02148610F2142
:101B20004FF0FF3006F040F900204FF0E0218861CF
:101B300007200861002070BD7047704710B504464B
:101B40000CB9012010BD94F8390028B9002084F8A0
:101B50003800204600F00CF8022084F83900211DDE
:101B6000206800F0D9F9012084F839000020E9E765
:101B700038B504460E492068884217D100BF0020BE
:101B800000900C48006840F002000A4908600846CE
:101B9000006800F00200009000BF00BF0322012196
:101BA0001D20FFF799FE1D20FFF786FE38BD0000BF
:101BB000000400404038024001460868C06840F018
:101BC00001000A68D0600868006840F001000A68F7
:101BD000106000207047704710B504462068006907
:101BE000C0F34000D8B12068C068C0F34000B0B175
:101BF0006FF002002168086101202076206880696A
:101C000000F0030018B12046FFF7E5FF05E020468D
:101C100000F0ADF8204600F0ABF8002020762068F8
:101C20000069C0F38000D8B12068C068C0F38000AC
:101C3000B0B16FF0040021680861022020762068AE
:101C4000806900F4407018B12046FFF7C4FF05E03A
:101C5000204600F08CF8204600F08AF8002020761C
:101C600020680069C0F3C000D8B12068C068C0F324
:101C7000C000B0B16FF00800216808610420207630
:101C80002068C06900F0030018B12046FFF7A3FFE9
:101C900005E0204600F06BF8204600F069F80020CF
:101CA000207620680069C0F30010D8B12068C068B1
:101CB000C0F30010B0B16FF0100021680861082077
:101CC00020762068C06900F4407018B12046FFF704
:101CD00082FF05E0204600F04AF8204600F048F870
:101CE000002020762068006900F0010058B12068CB
:101CF000C06800F0010030B16FF001002168086198
:101D0000204600F036F820680069C0F3C01058B1D2
:101D10002068C068C0F3C01030B16FF08000216847
:101D200008612046FFF708FF20680069C0F38010B3
:101D300058B12068C068C0F3801030B16FF0400027
:101D400021680861204600F01AF820680069C0F395
:101D5000401058B12068C068C0F3401030B16FF037
:101D60002000216808612046FFF7E7FE10BD70479C
:101D7000704710B50446204600F03CF810BD70478F
:101D80001448006840F47000124908601248006866
:101D900040F001001049086000200F490831086038
:101DA0000D4800680D4908400B4908600C48091DA2
:101DB0000860081F006820F48020091F08600020C8
:101DC00005490C3108604FF0006002498039086015
:101DD0007047000088ED00E000380240FFFFF6FE8B
:101DE0001030002410B50248FFF7F6FE10BD0000C9
:101DF00088B4002070B504463B4884426ED1142557
:101E00003A480088142805DA38480088401C3749C9
:101E1000088024E000203549088009F075FE09F0AB
:101E2000E9FE33480088400850B13148008801215C
:101E3000C1EB50002E49098860F34F012C48018006
:101E400003202C490978032905DA2A490978491C15
:101E5000284A117002E00021264A117000BF44F6A2
:101E60002065254800882946884205DA22480088EE
:101E7000401C2149088030E000201F4908801F488D
:101E8000007820B11D480078401E1C4908701C488D
:101E9000007820B11A480078401E19490870194886
:101EA0000088401C174908801748007838B1174847
:101EB000007820B114480078401E13490870144877
:101EC000007850B11348007828B112480078401EBD
:101ED0001049087001E00AF007FA00BF09F040FF5E
:101EE00009F09EFE70BD000088B400201E01002095
:101EF000D200002020010020220100201C0100202F
:101F0000D00000200C0000206A0100206B0100209E
:101F1000360100203501002000220268234B984240
:101F20000BD0B0F1804F08D0214B984205D0214B07
:101F3000984202D0204B984201D1012300E00023B7
:101F40001BB122F070024B681A43184B984214D010
:101F5000B0F1804F11D0164B98420ED0154B9842DD
:101F60000BD0154B984208D0144B984205D0144B17
:101F7000984202D0134B984201D1012300E0002384
:101F80001BB122F44072CB681A4302608B68C362B3
:101F90000B688362054B984201D1012300E00023C6
:101FA0000BB10B69036301234361704700000140DB
:101FB0000004004000080040000C004000400140C8
:101FC00000440140004801402DE9F04105469627B4
:101FD0002C4620460AF040FF20460AF02FFF20B989
:101FE0000A2006F0BBFCBDE8F08126E024692089C8
:101FF000002803DD2089401E20811EE0268800BFC6
:10200000314628460BF02CF80028F9D080210D48E5
:10201000FEF70DFD33460CA280210A48FEF7C2FAF6
:102020000848FEF762FC80460E4841464269054872
:1020300090470A2006F092FC00BF20690028D5D105
:1020400000BFD0E7FC1100207A696762206E6F64E0
:10205000655B253034585D206862447320726D766C
:102060002E0D0A00E4EF000870B504460D46034A41
:102070002946204600F0A2FA70BD0000C8EE000814
:1020800010B51A49C8688047194A1068174A9168FC
:102090008847164801690220884714484FF4E13107
:1020A000826A0120904711480121826A15209047D9
:1020B0000E480121826A16209047642006F04EFCEB
:1020C00080210C48FEF7B3FC0BA280210948FEF7E3
:1020D00069FA0848FEF709FC0446044821464269AB
:1020E000044890470A2006F039FC10BDE4EF0008D0
:1020F00064B40020FC11002069276D2075736172A3
:10210000743120666F7220646562756750310D0A04
:102110000000000008B5024800F0A2FE009008BDD3
:10212000C8EE000808B5024800F09DFE009008BD0A
:10213000C8EE000810B5024800F0DFFE10BD000038
:10214000C8EE000808B5024800F0E5FE009008BDA2
:10215000C8EE000810B5024800F047FF10BD0000AF
:10216000C8EE000810B5024800F04DFF10BD000099
:10217000C8EE000810B504460249204601F072F886
:1021800010BD0000C8EE000810B504460249204604
:1021900001F09CF910BD0000C8EE000810B504461F
:1021A000014801F0A3FA10BDC8EE000870B504465E
:1021B0000D46034A2946204601F0DAFA70BD0000B8
:1021C000C8EE000870B504460D46034A294620466D
:1021D00001F071FB70BD0000C8EE000810B50446A8
:1021E0000249204601F0F3FB10BD0000C8EE0008D4
:1021F00010B50446014801F023FC10BDC8EE0008EC
:1022000070B504460D461646034B32462946204615
:1022100001F03CFC70BD0000C8EE000810B502489B
:1022200001F069FC10BD0000C8EE000870B504465E
:102230000D46034A2946204600F0C0F970BD000053
:102240003CEF000810B51149C8688047104A506833
:102250000E4A916888470D480169022088470B485B
:102260004FF4E131826A0120904708480121826AD7
:102270001520904705480121826A1620904703489F
:102280001C21426903A0904710BD00001CF000080B
:1022900064B4002069276D20757361727432206602
:1022A0006F7220646174615472616E7350310D0AF3
:1022B0000000000008B5024800F0D2FD009008BD03
:1022C0003CEF000808B5024800F0CDFD009008BDC5
:1022D0003CEF000810B5024800F00FFE10BD0000F2
:1022E0003CEF000808B5024800F015FE009008BD5C
:1022F0003CEF000810B5024800F077FE10BD00006A
:102300003CEF000810B5024800F07DFE10BD000053
:102310003CEF000810B504460249204600F0A2FF39
:1023200010BD00003CEF000810B5044602492046ED
:1023300001F0CCF810BD00003CEF000810B50446D9
:10234000014801F0D3F910BD3CEF000870B5044618
:102350000D46034A2946204601F00AFA70BD0000E6
:102360003CEF000870B504460D46034A2946204656
:1023700001F0A1FA70BD00003CEF000810B5044662
:102380000249204601F023FB10BD00003CEF00088D
:1023900010B50446014801F053FB10BD3CEF0008A6
:1023A00070B504460D461646034B32462946204674
:1023B00001F06CFB70BD00003CEF000810B5024856
:1023C00001F099FB10BD00003CEF000870B5044619
:1023D0000D46034A2946204600F0F0F870BD000083
:1023E000B0EF000800B587B02249C8688047224A8C
:1023F0001069204A916888471E4801690220884771
:102400001C484FF4E131826A0120904719480121AC
:10241000826A1520904717480121826A162090474A
:1024200000BF002001901548006840F004001349E7
:1024300008600846006800F00400019000BF00BF7B
:102440000120039002200590012004904003029097
:1024500002A90B48FFF752F800224FF40051084838
:10246000FFF73EF903481C21426906A0904707B0D8
:1024700000BD000054F0000864B400203038024071
:102480000008024069276D207573617274362066FA
:102490006F7220646174615472616E7350320D0A00
:1024A0000000000008B5024800F0DAFC009008BD0A
:1024B000B0EF000808B5024800F0D5FC009008BD58
:1024C000B0EF000810B5024800F017FD10BD000085
:1024D000B0EF000808B5024800F01DFD009008BDEF
:1024E000B0EF000810B5024800F07FFD10BD0000FD
:1024F000B0EF000810B5024800F085FD10BD0000E7
:10250000B0EF000810B504460249204600F0AAFECC
:1025100010BD0000B0EF000810B504460249204687
:1025200000F0D4FF10BD0000B0EF000810B5044665
:10253000014801F0DBF810BDB0EF000870B50446AB
:102540000D46034A2946204601F012F970BD0000ED
:10255000B0EF000870B504460D46034A29462046F0
:1025600001F0A9F970BD0000B0EF000810B50446F5
:102570000249204601F02BFA10BD0000B0EF000820
:1025800010B50446014801F05BFA10BDB0EF000839
:1025900070B504460D461646034B32462946204682
:1025A00001F074FA70BD0000B0EF000810B50248E9
:1025B00001F0A1FA10BD0000B0EF00082DE9F04FC6
:1025C0008BB007460D461446E06AC07A00F0020060
:1025D00020B94FF0FF300BB0BDE8F08F002007901E
:1025E00080460690F8B2153806287DD2DFE800F064
:1025F00093D1032C4A64A5B1206B90F8210010B14F
:102600006FF00100E7E70120216B81F82100216BC9
:1026100081F820006068C06840F081006168C8608F
:1026200010E0206B90F8200060B16068C06820F076
:1026300080006168C8600020216B81F82000216B58
:1026400081F821000020C6E76068C06820F0C00063
:102650006168C860606A68B1206B90F8210048B179
:102660006068406920F0800061684861616A0868BC
:10267000FEF7C2FC0020216B81F82000216B81F85D
:102680002100A8E76068C06820F020006168C86089
:10269000A06A60B1E06A407948B16068406920F0A2
:1026A000400061684861A16A0868FEF7A5FC002146
:1026B000E06A417100208EE76068C06820F0E000A9
:1026C0006168C860606A68B1206B90F8210048B109
:1026D0006068406920F0800061684861616A08684C
:1026E000FEF78AFCA06A00E0BBE060B1E06A4079D6
:1026F00048B16068406920F0400061684861A16AA3
:102700000868FEF779FC0021E06A41710020216B26
:1027100081F821005FE7E06810B94FF0FF305AE719
:1027200005B3E06AC06806280FD0E0688088019091
:1027300002200290002003900490E06880790590C8
:10274000E168086801A9FEF7D9FEE06AC07A40F0A6
:102750000800E16AC8726068C06840F008006168FB
:10276000C86014E06068C06820F008006168C86054
:10277000E06AC07A20F00800E16AC872E06AC068C6
:10278000062804D0E26891881068FEF71BFE00203E
:1027900021E7206910B94FF0FF301CE7B5B3E06ABC
:1027A000C068062813D0E06AC06804280FD02069EA
:1027B00080880190022002900020039004902069FC
:1027C000807905902169086801A9FEF797FEE06A03
:1027D000C07A40F01000E16AC8726068406940F059
:1027E0000100616848616068006940F0400061680C
:1027F00008616068C06840F010006168C860E06A05
:10280000407920B1A06A10B1012001E00EE0002063
:1028100028B96068C06840F020006168C8606068DE
:10282000C06840F004006168C86018E06068C06873
:1028300020F004006168C860E06AC07A20F01000EF
:10284000E16AC872E06AC068062808D0E06AC06819
:10285000042804D0226991881068FEF7B3FD002097
:10286000B9E600BF00BFE06A407918B9206B90F864
:10287000210010B16FF00100ADE66068C06800F0A3
:10288000080038B16068006800F0400010B96FF0CF
:102890000100A0E6F8B2152871D2DFE800F0D60BEF
:1028A0000E1D20272ED6D6D6D6D6D6D6D6D63D4184
:1028B0007388C50001200990CAE02078C0F3400069
:1028C00020B148F4006848F4807802E06FF0060018
:1028D00081E602200990BBE06FF006007BE60698D7
:1028E00040F00800069004200990B1E0069840F0FE
:1028F0000200069005200990AAE02078C0F340105D
:1029000020B1069840F02000069002E06FF006002B
:1029100061E6062009909BE0216B4D8300205AE67A
:10292000E06AC068052827D02DB36068406940F090
:10293000040061684861A06880470A90F7490A98D6
:10294000B1FBF0F00A90012605E00A987043A84216
:1029500000D902E0761CFF2EF7D900BFB6F5807FC4
:1029600002D14FF0FF3036E66068806920F0FF004A
:1029700030436168886103E04FF0FF302BE664E08C
:10298000002028E6E06AC06806280BD1FF2D01D997
:10299000C01F20E66068806920F47F40284361689A
:1029A000886102E04FF0FF3015E6002013E6E06A90
:1029B000C068062833D1A06880470A90D7490A9892
:1029C000B1FBF0F00A90012619E00A98704340002C
:1029D0006421484305EB051101EB4101B0EB410FC8
:1029E0000CD20A98704340006421484305EB05115E
:1029F00001EB4511B0EB410F00D902E0761C402EEF
:102A0000E3D300BF402E02D14FF0FF30E3E5606812
:102A1000806920F0FF0030436168886102E04FF078
:102A2000FF30D8E50020D6E5E06AC068062807D167
:102A30004DB16068406940F010006168486102E093
:102A40004FF0FF30C7E50020C5E56FF00300C2E599
:102A500000BF07F4E06060B1B0F5807F13D0B0F53F
:102A6000E06F1DD107F4405010B96FF00800B2E5D7
:102A700019E007F4405028B148F02008079840F4C6
:102A8000805007900FE007F4405010B16FF008003D
:102A9000A1E548F02008079840F48050079002E034
:102AA0006FF0080097E500BF07F4405030B1B0F573
:102AB000805F04D0B0F5005F0BD105E00CE0079813
:102AC00040F48060079007E0079840F4C0600790EA
:102AD00002E06FF009007EE500BF07F4404048B116
:102AE000B0F5804F07D0B0F5004F07D0B0F5404F9C
:102AF0000AD106E00BE048F4005808E048F44058DA
:102B000005E048F4805802E06FF00A0063E500BF7A
:102B100007F4403048B1B0F5803F09D0B0F5003F30
:102B200015D0B0F5403F34D120E04FF0000933E03C
:102B30002078C0F3C01030B14FF48039069840F4CB
:102B40008070069002E06FF00B0044E524E02078EE
:102B5000C0F3C01030B14FF40039069840F4007053
:102B6000069002E06FF00B0035E515E02078C0F329
:102B7000C01050B12088C0F3002030B14FF440396C
:102B8000069840F4E060069002E06FF00B0022E54A
:102B900002E06FF00B001EE500BF099802281DD16E
:102BA00007F4802018B1B0F5802F04D100E005E0D3
:102BB00048F4806802E06FF00C000CE500BF07F4F9
:102BC000002018B1B0F5002F04D100E005E048F472
:102BD000007802E06FF00D00FDE400BFA0688047C0
:102BE00000EBC00101EB0010A900B0FBF1F0642183
:102BF000B0FBF1FAA068804700EBC00101EB0010C8
:102C0000A900B0FBF1FBA068804700EBC00101EB1D
:102C10000010A900B0FBF1F06421B0FBF1F000EB73
:102C2000C00101EB0010ABEB8000322101EB001082
:102C30006421B0FBF1F06AF31F100A90A06880478E
:102C400001010A9880B2B1FBF0F0000908906421FC
:102C50000898484305EB051101EB4101B0EB410F2A
:102C600009D264210898484305EB051101EB451191
:102C7000B0EB410F02D86FF00700ACE46068C068A9
:102C800020F400506168C8600A98616888600998FB
:102C9000E16AC860E06AC0F81090E06AC06806287F
:102CA00010D1E068808801900220029000200390FB
:102CB0000490E06880790590E168086801A9FEF752
:102CC0001DFC1BE0E06AC07A00F0080080B1E068FB
:102CD0008088019002200290002003900490E06818
:102CE00080790590E168086801A9FEF707FC04E017
:102CF000E26891881068FEF765FB00BF00BFE06ADC
:102D0000C068042802D006280AD100E000BF22696A
:102D100091881068FEF756FB1EE0000000CA9A3B3F
:102D2000E06AC07A00F0100080B1206980880190CC
:102D30000220029000200390049020698079059081
:102D40002169086801A9FEF7D9FB04E0226991888E
:102D50001068FEF737FB00BF00BF6069F0B1E06AA2
:102D6000C068022802D0062811D100BF606980889F
:102D70000190022002900020039004906069807905
:102D800005906169086801A9FEF7B8FB05E0626972
:102D900091881068FEF716FB00BF00BFA06918B34A
:102DA000B9F5803F02D0B9F5403F10D1A0698088C5
:102DB000019002200290002003900490A069807985
:102DC0000590A169086801A9FEF798FB0CE0A069CD
:102DD0008088019001200290002003900490A16956
:102DE000086801A9FEF78AFBE06910B3B9F5003F56
:102DF00002D0B9F5403F10D1E069808801900220EF
:102E00000290002003900490E06980790590E169C8
:102E1000086801A9FEF772FB0BE0E0698088019069
:102E20000020029003900490E169086801A9FEF770
:102E300065FB07986168C8606068C0F810800698F4
:102E4000616848616068C06840F400506168C860AB
:102E5000E06AC07A40F00400E16AC872002010E421
:102E60000146086870471CB50446E06A006920B155
:102E7000E06A0069B0F5803F10D1E269918810687E
:102E8000FEF726FC28B9019820F00100401C0190B3
:102E900008E0019820F00100019003E0019820F083
:102EA00001000190019820F002000190019820F0AB
:102EB00008000190019820F0040001900198009909
:102EC00060F30001009101984108009861F341000E
:102ED000009001988108009861F3820000900198A9
:102EE000C108009861F3C30000900198010900989F
:102EF00061F31F10009000981CBD0146886A38B12C
:102F0000086B00688A6A126812685268801A7047F3
:102F1000086B0069FBE70CB50146086B90F82100CF
:102F200028B1019820F00100401C019008E0486899
:102F30000068012222EA9012019862F300000190D9
:102F4000C86A4279019862F341000190C86A8279A7
:102F5000019862F382000190C86AC279019862F315
:102F6000C3000190C86A027A019862F304100190CC
:102F7000C86A427A019862F345100190C86A827A61
:102F8000019862F3861001900198009A60F30002A4
:102F9000009201984208009862F341000090019865
:102FA0008208009862F3820000900198C20800989D
:102FB00062F3C300009001980209009862F30410C4
:102FC000009001984209009862F345100090019822
:102FD0008209009862F3861000900198C209009857
:102FE00062F3DF10009000980CBD0146486A38B1CA
:102FF000086B40684A6A126812685268801A704703
:10300000086B4069FBE72DE9F041044660680668FB
:1030100000270025A84606F020006168C96808401E
:10302000002861D0E06A407938B9606840680121C1
:10303000E06AC17145F0200556E0E06AC0680228E8
:1030400006D1206BC069012802D16068406803E0A6
:10305000606840681FFA80F8206B8268501C236B00
:10306000986082F800806068C76807F4806050B993
:1030700007F4805038B14FEA2821206B8268501C39
:10308000236B98601170206B0069401C216B0861F4
:10309000206B0069216B0968884225D16068C0688F
:1030A00020F010006168C8600021E06A4171E06AA8
:1030B000C068022816D1206BC7690020216BC86147
:1030C000012F04D0022F05D0032F09D105E045F0D0
:1030D000010506E045F0020503E045F0040500E0C7
:1030E00000BF01E045F0020506F010006168C96804
:1030F000084018B16068406845F0400506F080005F
:103100006168C9680840002863D0206B90F82000EF
:1031100030B16068C06840F001006168C86058E084
:10312000206B4068216B4969884222D0E06AC06800
:10313000022807D1206BC069022803D1206BB0F8A8
:103140001A8016E0206BC168481C226BD06091F891
:1031500000806068C76807F4806050B907F4805049
:1031600038B1206BC168481C226BD060087848EAEF
:103170000028206B4069401C216B48616068C0F8E2
:103180000480206B4068216B4969884221D16068C6
:10319000C06820F080006168C8606068C06840F066
:1031A00040006168C8600020216B81F82100E06A5E
:1031B000C06802280BD1206BC069012809D1E06AE0
:1031C000C07A00F0100020B945F0010501E045F09B
:1031D000010506F040006168C968084038B16068C0
:1031E000C06820F040006168C86045F0080506F03E
:1031F000080030B1606840680121E06AC17145F0A3
:10320000200506F0020030B1606840680121E06AE4
:10321000417245F4807506F0010030B16068406885
:103220000121E06A817245F4007506F4807050B1A6
:103230006068006820F48070616808600121E06ABD
:10324000017245F0800525B1E06A006808B10120EF
:1032500000E0002018B1E06A016828468847BDE810
:10326000F081000038B505460C46E06AC07A00F0EF
:10327000010008B1002038BDE06A05600020E16A65
:1032800008710021E06A4171E06A8171E06AC171F0
:10329000E06A0172E06A4172E06A81720020E16ACC
:1032A000C860216B81F821002421206BFDF7E1FB30
:1032B000E1680868FDF71EFE21690868FDF71AFE3F
:1032C000606918B161690868FDF714FEA06918B15A
:1032D000A1690868FDF70EFEE06918B1E1690868A8
:1032E000FDF708FEA06A002836D0A06A8068A16AAF
:1032F00009680860A06AC068A16A0968486000217E
:10330000A06A00688160A06A0068C161A06A016962
:10331000006801620021A06A006841620321A06A7E
:10332000006881620021A06A0068C162A06A00682A
:1033300001630020A16A09688863A06A4068A16AE5
:103340000968C8630020A16A09680864A16A09685D
:103350004864A16A09688864606A002837D0606A96
:103360008068616A09680860606AC068616A0968A3
:1033700048604021606A006881600021606A0068DE
:10338000C161606A0169006801620021606A0068C9
:1033900041620321606A006881620021606A0068FE
:1033A000C162606A006801630020616A096888631D
:1033B000606A4068616A0968C8630020616A0968D8
:1033C0000864616A09684864616A09688864164922
:1033D0006068884203D01549606888420FD100BFF9
:1033E000002000901248006840F4800010490860F6
:1033F0000846006800F48000009000BF0FE000BFA6
:10340000002000900A48006840F400100849086055
:103410000846006800F40010009000BF00BF0120C3
:10342000E16AC872002026E7001001400014014044
:10343000303802402149884206D12149096841F0CB
:1034400010011F4A116014E01E49884208D11C492E
:10345000091F096841F40031194A121F116008E080
:103460001949884205D11649096841F02001144ADA
:10347000116000BF00BF00BF00BF1049884206D1E5
:103480000F49096821F010010D4A116014E00D493F
:10349000884208D10A49091F096821F40031084A05
:1034A000121F116008E00849884205D104490968E3
:1034B00021F02001024A1160704700000010014015
:1034C00024380240004400400014014038B505464D
:1034D0000C4625B1012D64D0022D74D164E06068E2
:1034E000FFF7A8FF94F92000FEF7C4F9A06A60B1C5
:1034F000A06A0068006840B1A16A91F91400FEF763
:10350000B9F9A16A0868FDF7A6FD606A60B1606A52
:103510000068006840B1616A91F91400FEF7AAF9E9
:10352000616A0868FDF797FD6C496068884206D1BA
:103530006B48006820F010006949086016E069498E
:103540006068884208D16648001F006820F4003097
:103550006349091F086009E063496068884205D132
:103560005F48006820F020005D4908600020E16AA3
:1035700008710021E06A4171E06A8171E06AC171FD
:10358000E06A0172E06A4172E06A81720020216B98
:1035900081F82100E06AC07A20F00200E16AC87276
:1035A00099E06FF0030038BDE06AC07A00F00100D6
:1035B00010B94FF0FF30F6E7E06AC07A00F0020081
:1035C00010B10020EFE783E00020E16A08710021DC
:1035D000E06A4171E06A8171E06AC171E06A01727A
:1035E000E06A4172E06A81720020216B81F821005B
:1035F000216B4883216BC861216B81F82000E16A4F
:10360000C860E16A08610320E16AC87233496068F2
:1036100088420FD100BF002000903148006840F080
:1036200010002F4908600846006800F01000009064
:1036300000BF29E02B496068884211D100BF0020FB
:1036400000902748001F006840F400302449091FFB
:1036500008600846006800F40030009000BF13E0E6
:103660002149606888420FD100BF002000901C48AB
:10367000006840F020001A4908600846006800F021
:103680002000009000BF00BF94F9200004F068FB08
:1036900094F9200004F072FBA06A48B1A16A91F984
:1036A000140004F05DFBA16A91F9140004F066FBBC
:1036B000606A48B1616A91F9140004F051FB616AD3
:1036C00091F9140004F05AFB6068FFF7B3FE02E0C2
:1036D0006FF0030067E700BF002064E700100140BF
:1036E00044380240004400400014014070B50446D4
:1036F000A06A00680068406818B1206B006800B1DB
:1037000070BD6068C06820F010006168C860002566
:10371000E06AC068022813D1206BC6690020216BC3
:10372000C861012E04D0022E04D0032E06D103E07E
:10373000012504E0022502E0042500E000BF00E0CE
:103740000225206B0068216B08610021E06A41714D
:103750006068C06840F020006168C860E06A006886
:1037600020B11DB1E06A01682846884700BFC7E75D
:103770002DE9F04706460D4614464FF4806906B120
:103780001DB96FF00400BDE8F087E06AC07A00F070
:10379000040010B94FF0FF30F5E7E06A40790128E6
:1037A00001D1C01EEFE76068C06820F020006168AA
:1037B000C860206B05600021E06A0172E06A417216
:1037C000E06AC171E06A8172206B86600020216B23
:1037D00008610121E06A4171E06AC068022805D1F0
:1037E000206BC069012801D14FF00009A06A0028B0
:1037F00042D00021A06A0068C160A06A0068C0F8D9
:1038000010906068D0F80C8008F4805058B108F42B
:10381000806040B94FF40061A06A00684161A06A0D
:103820000068816106E00021A06A00684161A06A29
:1038300000688161A16A0868FDF74CFD10B14FF086
:10384000FF30A0E7236B9A686368191DA36A1868A4
:103850002B46FDF781FD10B14FF0FF3093E7606814
:10386000406940F04000616848616068C06840F0AD
:1038700010006168C86005E06068C06840F0300012
:103880006168C860E06AC068022812D1206BC06914
:1038900078B90220216BC861216B01F11A00224620
:1038A000294600F008F80746B81C10B96FF001006F
:1038B00069E7002067E72DE9F04706460D46144604
:1038C0004FF4806906B11DB96FF00400BDE8F087C0
:1038D000E06AC07A00F0040010B94FF0FF30F5E75D
:1038E000206B90F8210010B16FF00100EEE701208D
:1038F000216B81F82100206BC660206B45600020A1
:10390000216B4861E06AC068022818D1206BC06949
:1039100078B90120216BC861216B01F118002246A2
:103920002946FFF725FF0746B81C40B96FF0010094
:10393000CCE7206BC069022801D14FF00009606A12
:10394000A8B30021606A0068C160606A0068C0F8BE
:1039500010906068D0F80C8008F4805058B108F4DA
:10396000806040B94FF40061606A00684161606A3C
:103970000068816106E00021606A00684161606A58
:1039800000688161616A0868FDF7A4FC10B14FF01E
:10399000FF309BE763681A1D236BD968636A186858
:1039A0002B46FDF7D9FC18B14FF0FF308EE706E04B
:1039B0006068406940F080006168486105E06068C7
:1039C000C06840F080006168C86000207EE770B584
:1039D00005460C4635B1012D17D0022D29D0032DF7
:1039E00026D127E0E06A006920B1E06A0069B0F5FD
:1039F000003F06D1A269918810680122FDF770FE90
:103A000002E04FF0FF3070BD17E0E06A006920B1BE
:103A1000E06A0069B0F5003F06D1A269918810689C
:103A20000022FDF75DFE02E04FF0FF30EBE704E01F
:103A300000BF00BF4FF0FF30E5E700BF0020E2E726
:103A400010B50446606A00680068406818B1206BD1
:103A5000406800B110BD206B4068216B48610020B8
:103A6000216B81F821006068C06840F04000616807
:103A7000C860E06AC068022806D0E06A006818B131
:103A8000E06A01680120884700BFE3E72DE9F041C3
:103A900080460E4617461C46B8F1000F01D006B10D
:103AA0001FB96FF00400BDE8F081E06AC07A00F051
:103AB000040010B94FF0FF30F5E7E06AC068022853
:103AC00014D10320216BC861224639463046FFF7E6
:103AD0004FFE05460DB12846E5E7224639464046E9
:103AE000FFF7E9FE054625B12846DCE74FF0FF3039
:103AF000D9E70020D7E710B50446E06820B1E268B6
:103B000091881068FDF75EFC206920B122699188D8
:103B10001068FDF757FC606920B1626991881068F0
:103B2000FDF750FCA06920B1A26991881068FDF7EB
:103B300049FCE06920B1E26991881068FDF742FC18
:103B4000A06A18B10020A16A09680860606A18B10B
:103B50000020616A096808600020E16AC87210BD2F
:103B600008B502480068009008BD000084EE000817
:103B70002DE9F04704460D461646142740F6B8389E
:103B800042F6E0694EF6602A00F058F870B3012062
:103B9000254908702548007810B90120234908708C
:103BA0002348008840F6B83188420BDB2048008863
:103BB0008900884206DC1F48007818B9A847012010
:103BC0001C4908701A48008842F6E061884228DBE8
:103BD000174800884EF66021884222DC164800789B
:103BE000F8B9B0470120144908701AE000200F49C5
:103BF00008700D480078A0B100200B4908700C48EF
:103C0000008840F6B831884204DA09480088142850
:103C100000DDA047002006490880064908700649D3
:103C20000870BDE8F0870000500100203C01002032
:103C30003E0100204E0100204F01002010B500245D
:103C40004FF400510448FDF743FD08B9012400E09A
:103C50000024204610BD00000004024001B5ADF66E
:103C6000983D0020CDF88C0BCDF8900BCDF8940B3F
:103C70004FF460710DF60C00FCF7FBFE0020CDF850
:103C800008084FF43F710DF20C50FCF7F2FE0020D3
:103C9000CDF8080500BFDDF8980B06F083FB4FF464
:103CA0007A7004F05BFE00BF0A20CDF80405FE48E0
:103CB0000078C0B1FD4880790A2190FBF1F0FC4901
:103CC000097888420FD0F94880790A2190FBF1F0F9
:103CD000F7490870F4480078401EF3490870012144
:103CE000052008F0C7FEF348007800287ED0F2A037
:103CF00006C80DF5A06006C04FF40071C0A8FCF71F
:103D0000B8FE0320BF900A20BE900020BD90E74877
:103D100080790A2190FBF1F1E948007881420AD0CC
:103D2000E24880790A2190FBF1F0E5490870012111
:103D3000052008F09FFEDD488079032190FBF1F01B
:103D4000E0490978884267D0D8488079032190FB00
:103D5000F1F0DC490870D7480078401ED54908705A
:103D60004FF43F710DF20C50FCF783FE4FF460717D
:103D70000DF60C00FCF77DFE4FF40071C0A8FCF7B7
:103D800078FE0DF5A060CB490978405C0146BC90F7
:103D9000C0A807F087FBBD90BD98002836D0122040
:103DA0008DF80C050DF5A060C2490978405CBB9008
:103DB00007F02CFCC0AB0246C3A1BC900DF20D5025
:103DC000FCF7DCFB0DF20D50FCF78FFD80B2ADF877
:103DD00006084FF43C720DF5A3616846FCF7F5FD4B
:103DE0000DF60C000DF20C510EC900E015E007F0C5
:103DF00069FCCDF80808BE4800684069BC900DF623
:103E00000C00BC9ADDF80818904705E0AD48007832
:103E1000C01CC1B2AB48017000BF0021B5480068AA
:103E200004F012FE0DF68C3307C3DDF88C0B10285E
:103E30007ED1DDF8900BCDF804054FF43F710DF203
:103E40000C50FCF716FE4FF460710DF60C00FCF7F9
:103E500010FEDDF80405007801286AD1DDF80405BC
:103E6000407820B1012803D002287DD119E0FCE37D
:103E7000DDF80405C07ACDF80005DDF8000510284E
:103E80000BD039280AD10020CDF8080589480078E0
:103E900010B908208749087001E000E000BF00BFAA
:103EA000E5E79548006804F009FECDF80005DDF867
:103EB0000005D0B980219148FCF7B9FD90A280217E
:103EC0008E48FCF76FFB8D48FCF70FFDCDF8FC0426
:103ED00091484069CDF8F8048848DDF8F824DDF809
:103EE000FC1490470A2004F039FD89220DF5A060EA
:103EF00003C8FCF725FDDDF80405007AAA2802D0E6
:103F0000FA287DD118E0DDF80405807A222811D145
:103F1000BB21DDF8000501720221DDF800054170CA
:103F200000227E48DDF80015006804F099FD02E0EB
:103F3000FDE3FDE300BFFCE30020CDF8FC044021DD
:103F40000DF2BC40FCF795FD0C20CDF8B804102014
:103F5000CDF8B4040020CDF8A404CDF8A804CDF821
:103F6000AC04CDF8B00400E0FEE3CDF8A0043E229E
:103F7000DDF8040500F117010DF2BC40FCF7E0FC90
:103F800089220DF5A06003C8FCF7DAFC0221DDF8F8
:103F900000054170DDF80405007CA1281FD1DDF883
:103FA0000005407ACDF89C040021DDF800050F30B3
:103FB00081608181DDF89C04801EC0B20146CDF88D
:103FC0009804DDF80005093004F056FA0146DDF8E2
:103FD0009C04421EDDF800050830815400BF002219
:103FE0004E48DDF80015006804F03AFDCDF8FC04F9
:103FF000DDF8FC04F0B180214048FCF718FD00E03A
:10400000FEE347A280213D48DDF8FC34FCF7CAFA04
:104010003A48FCF76AFCCDF89C043F484069CDF86B
:1040200098043648DDF89824DDF89C1490470A205F
:1040300004F094FC0A2004F091FC80212F48FCF746
:10404000F6FCDDF80405C079CDF8980407F068FBAC
:10405000CDF89C04DDF80405427F81794079DDF8D4
:104060009C34CDE90532CDE90301DDF80405017981
:10407000C2788078CDE901210090DDF80405007C4C
:1040800003462EA28021CDF898041C48FCF78AFA3A
:104090001A48FCF72AFCCDF89C041F484069CDF86B
:1040A0009804164864E000009A0000200E000020EA
:1040B0009B00002099000020393A3B403C573D3F8F
:1040C0009D0000209C0000207B22706964223A221F
:1040D0002573222C2263696473223A5B25735D2C5D
:1040E00022766572223A22312E302E30227D000057
:1040F00088000020BC00002014010020FC110020DA
:104100006D506F6F6C5F74687265614470206E757E
:104110006C6C2E0A00000000E4EF00086C00002028
:1041200057325A206D712E302074784661696C5276
:1041300065733A253038582E0A0000004B50414331
:104140003C253032583E20726376206D6163253005
:1041500032582530325825303258253032582530E3
:1041600032582D5B25735D7B253032587D0A000067
:10417000DDF89824DDF89C1490470A2004F0EEFB4B
:104180000C208DF80D05DDF804058179427903795D
:10419000C078CDE9013203910090DDF80405807804
:1041A000CDF89C04DDF80405C079CDF898040246EA
:1041B000FEA10DF20E50DDF89C34FCF7DFF9DDF8BE
:1041C000A0040D30C0B2CDF8A004DDF80405C0791C
:1041D0003D287DD008DC39280DD03A285AD03B281C
:1041E00077D03C2876D1C9E33F2874D0402873D0DB
:1041F0005728F7D178E39DF8C20400F0070018B102
:1042000001208DF8A40402E000208DF8A404012010
:1042100000900DF20D50DDF8A01408440DF2A443F7
:1042200001220D21CDF89C0407F022F9DDF8A0143D
:104230000844C0B2CDF8A0040020CDF8A404CDF805
:10424000A804CDF8AC04CDF8B0049DF8C20400F089
:1042500001008DF8A404012000900DF20D50DDF84E
:10426000A01408440DF2A44301221146CDF89C0489
:1042700007F0FEF8DDF8A0140844C0B2CDF8A004A1
:104280000020CDF8A404CDF8A804CDF8AC04CDF8F6
:10429000B004C4E39DF8C20400F0070018B1012087
:1042A0008DF8A40402E000208DF8A4040120009001
:1042B0000DF20D50DDF8A01408440DF2A4430122C4
:1042C0000D21CDF89C0407F0D3F8DDF8A01404E02C
:1042D00000E258E0A2E3EDE037E10844C0B2CDF8D7
:1042E000A0040020CDF8A404CDF8A804CDF8AC04B7
:1042F000CDF8B0049DF8C20400F001008DF8A404CC
:10430000012000900DF20D50DDF8A01408440DF2CC
:10431000A44301221146CDF89C0407F0A9F8DDF86A
:10432000A0140844C0B2CDF8A0040020CDF8A40425
:10433000CDF8A804CDF8AC04CDF8B0049DF8C204C3
:10434000C0F340008DF8A404012000900DF20D5040
:10435000DDF8A01408440DF2A44301220221CDF897
:104360009C0407F085F8DDF8A0140844C0B2CDF82D
:10437000A0040020CDF8A404CDF8A804CDF8AC0426
:10438000CDF8B0044BE39DF8C20400F0070018B16B
:1043900001208DF8A40402E000208DF8A40401207F
:1043A00000900DF20D50DDF8A01408440DF2A44366
:1043B00001220D21CDF89C0407F05AF8DDF8A01475
:1043C0000844C0B2CDF8A0040020CDF8A404CDF874
:1043D000A804CDF8AC04CDF8B0049DF8C20400F0F8
:1043E00001008DF8A404012000900DF20D50DDF8BD
:1043F000A01408440DF2A44301221146CDF89C04F8
:1044000007F036F8DDF8A0140844C0B2CDF8A004D7
:104410000020CDF8A404CDF8A804CDF8AC04CDF864
:10442000B0049DF8C204C0F340008DF8A40401203C
:1044300000900DF20D50DDF8A01408440DF2A443D5
:1044400001220221CDF89C0407F012F8DDF8A01437
:104450000844C0B2CDF8A0040020CDF8A404CDF8E3
:10446000A804CDF8AC04CDF8B0049DF8C204C0F3A4
:1044700080008DF8A404012000900DF20D50DDF8AD
:10448000A01408440DF2A44301220321CDF89C049A
:1044900006F0EEFFDDF8A0140844C0B2CDF8A00489
:1044A0000020CDF8A404CDF8A804CDF8AC04CDF8D4
:1044B000B004B4E29DF8C20400F001008DF8A40439
:1044C000012000900DF20D50DDF8A01408440DF20B
:1044D000A44301221146CDF89C0406F0C9FFDDF883
:1044E000A0140844C0B2CDF8A0040020CDF8A40464
:1044F000CDF8A804CDF8AC04CDF8B0049DF8ED04D7
:104500008DF8A6049DF8EE048DF8A7040420009011
:104510000DF20D50DDF8A01408440DF2A443022260
:104520001321CDF89C0406F0A3FFDDF8A014084485
:10453000C0B2CDF8A0040020CDF8A404CDF8A804A2
:10454000CDF8AC04CDF8B00469E29DF8C20400F0E7
:104550000700CDF89C0403F0C1FE8DF8A4040120EF
:1045600000900DF20D50DDF8A01408440DF2A443A4
:1045700004220121CDF89C0406F07AFFDDF8A01496
:104580000844C0B2CDF8A0040020CDF8A404CDF8B2
:10459000A804CDF8AC04CDF8B0049DF8ED048DF876
:1045A000A704042000900DF20D500DE02530325884
:1045B000253032582530325825303258253032587F
:1045C0002530325800000000DDF8A01408440DF238
:1045D000A44302220921CDF89C0406F049FFDDF82E
:1045E000A0140844C0B2CDF8A0040020CDF8A40463
:1045F000CDF8A804CDF8AC04CDF8B0040DF2BC4061
:10460000C079C0F340108DF8A404012000900DF291
:104610000D50DDF8A01408440DF2A44301226721D7
:10462000CDF89C0406F024FFDDF8A0140844C0B2C5
:10463000CDF8A0040020CDF8A404CDF8A804CDF84E
:10464000AC04CDF8B0049DF8E7048DF8A404012073
:1046500000900DF20D50DDF8A01408440DF2A443B3
:1046600004226521CDF89C0400E009E206F000FF79
:10467000DDF8A0140844C0B2CDF8A0040020CDF8A5
:10468000A404CDF8A804CDF8AC04CDF8B0049DF88E
:10469000E8048DF8A404012000900DF20D50DDF81F
:1046A000A01408440DF2A44304226621CDF89C0412
:1046B00006F0DEFEDDF8A0140844C0B2CDF8A00478
:1046C0000020CDF8A404CDF8A804CDF8AC04CDF8B2
:1046D000B004A4E19DF8C20400F0070018B1012065
:1046E0008DF8A40402E000208DF8A40401200090BD
:1046F0000DF20D50DDF8A01408440DF2A443012280
:104700001146CDF89C0406F0B3FEDDF8A014084471
:10471000C0B2CDF8A0040020CDF8A404CDF8A804C0
:10472000CDF8AC04CDF8B0049DF8C20402E0D9E1A4
:10473000AAE1A4E100F007008DF8A704042000908E
:104740000DF20D50DDF8A01408440DF2A44302222E
:104750000321CDF89C0406F08BFEDDF8A01408447C
:10476000C0B2CDF8A00400E08BE10020CDF8A40495
:10477000CDF8A804CDF8AC04CDF8B0040DF2BC40DF
:10478000C079C0F340108DF8A404012000900DF210
:104790000D50DDF8A01408440DF2A4430122692154
:1047A000CDF89C0406F064FEDDF8A0140844C0B205
:1047B000CDF8A0040020CDF8A404CDF8A804CDF8CD
:1047C000AC04CDF8B0049DF8E70400F00F008DF8BC
:1047D000A404012000900DF20D50DDF8A01408444F
:1047E0000DF2A44304226521CDF89C0406F040FE9E
:1047F000DDF8A0140844C0B2CDF8A004002000E009
:104800003CE1CDF8A404CDF8A804CDF8AC04CDF873
:10481000B0049DF8E70400098DF8A404012000907D
:104820000DF20D50DDF8A01408440DF2A44304224B
:104830006621CDF89C0406F01BFEDDF8A0140844A8
:10484000C0B2CDF8A0040020CDF8A404CDF8A8048F
:10485000CDF8AC04CDF8B0049DF8E80400F00F00EA
:104860008DF8A404012000900DF20D50DDF8A01485
:1048700008440DF2A44304226721CDF89C0406F0FD
:10488000F7FDDDF8A0140844C0B2CDF8A004002064
:10489000CDF8A404CDF8A804CDF8AC04CDF8B0044C
:1048A0009DF8E80400098DF8A404012000900DF2A1
:1048B0000D50DDF8A01408440DF2A4430422682131
:1048C000CDF89C0406F0D4FDDDF8A0140844C0B275
:1048D000CDF8A0040020CDF8A404CDF8A804CDF8AC
:1048E000AC04CDF8B0049AE09DF8C20400F00700D3
:1048F0008DF8A404012000900DF20D50DDF8A014F5
:1049000008440DF2A44301221146CDF89C0406F0A0
:10491000AFFDDDF8A0140844C0B2CDF8A00400201B
:10492000CDF8A404CDF8A804CDF8AC04CDF8B004BB
:104930000DF2BC40C079C0F340108DF8A4040120F2
:1049400000900DF20D50DDF8A01408440DF2A443C0
:1049500001226521CDF89C0406F08AFDDDF8A01443
:104960000844C0B2CDF8A0040020CDF8A404CDF8CE
:10497000A804CDF8AC04CDF8B00450E09DF8C20412
:1049800000F0070018B101208DF8A40402E0002017
:104990008DF8A404012000900DF20D50DDF8A01454
:1049A00008440DF2A44301221146CDF89C0406F000
:1049B0005FFDDDF8A0140844C0B2CDF8A0040020CB
:1049C000CDF8A404CDF8A804CDF8AC04CDF8B0041B
:1049D000DDF80005407F00F07F008DF8A70404207B
:1049E00000900DF20D50DDF8A01408440DF2A44320
:1049F00002221146CDF89C0406F03AFDDDF8A01421
:104A00000844C0B2CDF8A0040020CDF8A404CDF82D
:104A1000A804CDF8AC04CDF8B00400E000BF00BF9E
:104A20000D208DF80C05DDF8A004ADF80608DDF8C2
:104A30000405C0793D2815D008DC39280ED03A2865
:104A40000DD03B280CD03C2812D106E03F280AD0DC
:104A5000402806D057280BD106E000BF00BF00BF9A
:104A600000BF00BF00BF00BF0120CDF8080503E074
:104A70000020CDF8080500BF00BF00E000BF00BF68
:104A800000E000BF00BF00E000BF00BFDDF8080588
:104A900008B34FF43C720DF5A3616846FBF795FF30
:104AA0000DF60C000DF20C510EC906F00BFECDF800
:104AB0000808FE4800684069CDF800050DF60C00B6
:104AC000DDF80025DDF808189047142003F046FFB4
:104AD0000020CDF80805F648DDF80415006804F05C
:104AE00013F800BF0021F348006803F0ADFF0DF696
:104AF0008C3307C3DDF88C0B10287DD1DDF8900BCB
:104B0000CDF804054FF43F710DF20C50FBF7B1FFE7
:104B10004FF460710DF60C00FBF7ABFFDDF80405F8
:104B20000078092869D2DFE800F068058AFE68FD90
:104B3000FCFB0F0011208DF80C050020ADF80608D5
:104B40000120CDF8080517E3D948006803F0B6FF47
:104B5000CDF80005DDF80005D8B98021D648FBF76F
:104B600066FFAFF664228021D348FBF71BFDD248D5
:104B7000FBF7BBFECDF8FC04D0484069CDF8F80443
:104B8000CD48DDF8F824DDF8FC1490470A2003F046
:104B9000E5FE0121DDF800050170AA21DDF8000520
:104BA00001722121DDF800054172A021DDF8000528
:104BB00081723921DDF80005C1721C21DDF8000584
:104BC0000D3003F059FC0146DDF800050173212189
:104BD000DDF8000580F888103321DDF80005C1718B
:104BE0000121DDF8000541700022B548DDF800150F
:104BF000006803F035FF01E0EBE2BCE202221E2177
:104C0000042003F0A7F98021AB48FBF710FFADA209
:104C10008021A948FBF7C6FCA748FBF766FECDF844
:104C2000FC04A6484069CDF8F804A348DDF8F82450
:104C3000DDF8FC1490470A2003F090FE9CE20C2063
:104C4000CDF800051020CDF8FC040020CDF8EC04D0
:104C5000CDF8F004CDF8F404CDF8F804CDF8E8046C
:104C60000C208DF80D059A480179C2788078984B10
:104C70005B78CDE90030CDE9022195480078034604
:104C8000CDF8E40493480278AFF2E0610DF20E50E3
:104C9000FBF774FCDDF8E8040D30CDF8E8048D482E
:104CA0000078392806D03A2856D03B287ED04028B4
:104CB0007DD173E18848007818B101208DF8EC04AB
:104CC00002E000208DF8EC04012000900DF20D5060
:104CD000DDF8E81408440DF2EC4301220D21CDF873
:104CE000E40406F0C5FBDDF8E8140844C0B2CDF8D2
:104CF000E8040020CDF8EC04CDF8F004CDF8F4047D
:104D0000CDF8F8047448007800F001008DF8EC0448
:104D1000012000900DF20D50DDF8E814084403E086
:104D20001CE214E2FFE108E20DF2EC43012211461D
:104D3000CDF8E40406F09CFBDDF8E8140844C0B2AA
:104D4000CDF8E8040020CDF8EC04CDF8F004CDF85F
:104D5000F404CDF8F804DAE15F48007818B10120D6
:104D60008DF8EC0402E000208DF8EC0401200090A6
:104D70000DF20D50DDF8E81408440DF2EC43012269
:104D80000D21CDF8E40406F073FBDDF8E8140844C7
:104D9000C0B2CDF8E8040020CDF8EC04CDF8F00462
:104DA000CDF8F404CDF8F8044B4801E048E0ADE15B
:104DB000007800F001008DF8EC04012000900DF265
:104DC0000D50DDF8E81408440DF2EC4301221146C1
:104DD000CDF8E40406F04CFBDDF8E8140844C0B25A
:104DE000CDF8E8040020CDF8EC04CDF8F004CDF8BF
:104DF000F404CDF8F80438480078C0F340008DF88A
:104E0000EC04012000900DF20D50DDF8E814084488
:104E10000DF2EC4301220221CDF8E40406F028FB58
:104E2000DDF8E8140844C0B2CDF8E8040020CDF85D
:104E3000EC04CDF8F004CDF8F404CDF8F80466E104
:104E40002548007818B101208DF8EC0402E000201C
:104E50008DF8EC04012000900DF20D50DDF8E814FF
:104E600008440DF2EC4301220D21CDF8E40406F0D4
:104E7000FFFADDF8E8140844C0B2CDF8E8040020D9
:104E8000CDF8EC04CDF8F004CDF8F404CDF8F80436
:104E90001148007800F001008DF8EC04012000902A
:104EA0000DF20D50DDF8E814084417E088000020EA
:104EB0001401002074000020FC110020E4EF000821
:104EC0006C0000207A624E776B206F70656E0A006E
:104ED000A8D9000817000020A00100200DF2EC4323
:104EE00001221146CDF8E40406F0C2FADDF8E81418
:104EF0000844C0B2CDF8E8040020CDF8EC04CDF8A9
:104F0000F004CDF8F404CDF8F804FE480078C0F3BE
:104F100040008DF8EC04012000900DF20D50DDF8FA
:104F2000E81408440DF2EC4301220221CDF8E40418
:104F300006F09EFADDF8E8140844C0B2CDF8E804A3
:104F40000020CDF8EC04CDF8F004CDF8F404CDF851
:104F5000F804EC480078C0F380008DF8EC040120E0
:104F600000900DF20D50DDF8E81408440DF2EC430A
:104F700001220321CDF8E40406F07AFADDF8E81402
:104F80000844C0B2CDF8E8040020CDF8EC04CDF818
:104F9000F004CDF8F404CDF8F804B8E00020CDF822
:104FA000E4040DF2E44003F039FAD648007800F04A
:104FB0000700CDF8E00403F091F98DF8EC0401202E
:104FC00000900DF20D50DDF8E81408440DF2EC43AA
:104FD00004220121CDF8E00406F04AFADDF8E814D5
:104FE0000844C0B2CDF8E8040020CDF8EC04CDF8B8
:104FF000F004CDF8F404CDF8F804C34840788DF8F7
:10500000EF04042000900DF20D50DDF8E814084480
:105010000DF2EC4304220921CDF8E00406F028FA51
:10502000DDF8E8140844C0B2CDF8E8040020CDF85B
:10503000EC04CDF8F004CDF8F404CDF8F80403F056
:10504000E7F98DF8EC04012000900DF20D50DDF829
:10505000E81408440DF2EC4301226721CDF8E00486
:1050600006F006FADDF8E8140844C0B2CDF8E8040A
:105070000020CDF8EC04CDF8F004CDF8F404CDF820
:10508000F8049DF8E4048DF8EC04012000900DF282
:105090000D50DDF8E81408440DF2EC4304226521BC
:1050A000CDF8E00406F0E4F9DDF8E8140844C0B2F5
:1050B000CDF8E8040020CDF8EC04CDF8F004CDF8EC
:1050C000F404CDF8F8049DF8E5048DF8EC04012013
:1050D00000900DF20D50DDF8E81408440DF2EC4399
:1050E00004226621CDF8E00406F0C2F9DDF8E814E8
:1050F0000844C0B2CDF8E8040020CDF8EC04CDF8A7
:10510000F004CDF8F404CDF8F80400E000BF00BFCF
:105110000D208DF80C05DDF8E804ADF80608012037
:10512000CDF8080528E01C208DF80C050020ADF80E
:1051300006080120CDF808051EE003208DF80C05B7
:105140000020ADF806080120CDF8080514E0042081
:105150008DF80C050020ADF806080DE005208DF84F
:105160000C056A4800788DF80D050120ADF8060899
:10517000CDF8080500E000BF00BFDDF8080508B362
:105180004FF43C720DF5A3616846FBF71EFC0DF66B
:105190000C000DF20C510EC906F094FACDF8080877
:1051A0005B4800684069CDF800050DF60C00DDF89D
:1051B0000025DDF808189047142003F0CFFB0020ED
:1051C000CDF808055348DDF80415006803F09CFC91
:1051D00000BF00215048006803F036FC0DF68C3308
:1051E00007C3DDF88C0B10287EF45EADDDF8900B64
:1051F000CDF804054FF43F710DF20C50FBF739FC6C
:105200004FF460710DF60C00FBF733FC802143482E
:10521000FBF70DFCDDF804050078034640A2802171
:10522000CDF800053D48FBF7BDF93C48FBF75DFBB9
:10523000CDF8000542484069CDF8FC043748DDF858
:10524000FC24DDF8001590470A2003F087FBDDF809
:1052500004050078092854D00CDC81F0A081DFE837
:1052600010F090000A0122012C01900076016B09D8
:105270007E097D01132867D006DC0A2809D00C2896
:105280007ED011287DD1FAE317287BD01C28F9D1D4
:1052900080E12C48D0E900318268CDF8F8340DF275
:1052A000FC4006C00020CDF8F404CDF8F004CDF8A1
:1052B000EC04DDF8040590F8FA0208230DF59F626E
:1052C0000146CDF8E804DDF80405401C03F022FA9D
:1052D000CDF8F404DDF8F40400287CDD0020CDF8DE
:1052E000E404CDF8E804DDF8F00440F00100CDF866
:1052F000F004DDF80405411CDDF8F4040C3008442A
:1053000023E039E1A0010020A6010020590000207F
:10531000880000206800002070000020FC110020A0
:105320007475796120756172742064617461207292
:1053300063765B636D643A253032585D2E0A000057
:10534000E4EF0008ACDA00080CE10DF2E441CDF81E
:10535000E00404F04DFDE8B3DDF80405411CDDF880
:10536000F4040A3008440DF2EC41CDF8DC0404F0FA
:1053700068FD00239DF8EC240DF2E441FD4802E0B5
:1053800075E2FDE36BE2006807F01AFECDF8E00479
:10539000DDF8F00440F00200CDF8F004DDF8E004A0
:1053A000A0B3DDF8F00440F00400CDF8F0040A20CA
:1053B0008DF80C059DF8E8149DF8E7249DF8E604A7
:1053C0009DF8E534CDE90030CDE902219DF8E404F3
:1053D000034601E04DE04DE0CDF8DC049DF8EC24FF
:1053E000E5A10DF20D50FBF7C9F80DF20D50FBF7DA
:1053F0007CFA80B2ADF806080120CDF80805EA482D
:10540000DDF8E014006803F07FFB31E0FFE70522E0
:105410000DF2E441E548FBF73CFA48BBDDF8F00447
:1054200040F00400CDF8F0040A208DF80C05DF48A8
:105430000179C078DD4A9278DC4B5B78CDE90032A7
:10544000CDE90201D94800780346CDF8DC04D848FC
:105450000278C9A10DF20D50FBF790F80DF20D5036
:10546000FBF743FA80B2ADF806080120CDF8080535
:1054700000BF00BF98E3CFA0CDF8000501208DF854
:105480000C05D3A10DF20D50DDF80025FBF776F8E1
:10549000DDF80005FBF729FA80B2ADF80608012017
:1054A000CDF80805E6E702208DF80C050020ADF8E0
:1054B00006080120CDF80805DCE7FF20CDF800053F
:1054C000DDF80405407806281CD2DFE800F0030769
:1054D0000B0F13170020CDF8000514E00120CDF8C4
:1054E000000510E00220CDF800050CE00320CDF807
:1054F000000508E00420CDF8000504E00520CDF803
:10550000000500E000BF00BFDDF8000506F0E0FA8E
:10551000DDF8000504280BD10120AE49087002F027
:105520008FFF072803D105F02DFB06F0DDFE03E019
:105530000020A849087000BF00BF03208DF80C05AB
:105540000020ADF806080120CDF8080592E7A24832
:10555000007820F08000A04908708BE70020CDF88B
:10556000080587E713208DF80C050020ADF8060824
:105570000120CDF808057DE70121052007F07AFA22
:1055800009208DF80C050020ADF806080120CDF8A3
:1055900008056FE70020CDF80005CDF8FC04CDF834
:1055A000F804CDF8F404DDF804054078CDF8F404EF
:1055B000DDF804058078CDF8FC049DF8F404C009FA
:1055C00018B18649DDF8FC0408709DF8F40400F079
:1055D0007F008249097810FB01F0C0B2CDF8F804D1
:1055E0009DF8F40400F07F0020B94FF4D8717C4896
:1055F000FBF73FFA0020CDF8000540E0DDF800158C
:10560000DDF8F804084400EB4000754901EB400068
:10561000401DCDF8F004DDF8000500EB800101EB42
:10562000C000C11CDDF80405401C0844CDF8EC04A2
:10563000DDF8F01404F005FCDDF80015DDF8F804E1
:10564000084400EB4000664901EB4000CDF8F0044F
:10565000DDF8000500EB800101EBC000411DDDF825
:105660000405401C0844CDF8EC04DDF8F01404F007
:10567000BFFBDDF80005401CC0B2CDF80005DDF829
:10568000FC14DDF800058842B8DB9DF8F404C0097D
:10569000F0BB9DF8F40400F07F01504A1278DDF869
:1056A000FC0412FB0100C1B24E4801704FF4D871E6
:1056B0004D48FBF7DEF94B48007800EB4000400016
:1056C00002464749CDF8F0044748FBF77EF98021B0
:1056D0004648FBF7ACF94348037845A2802143488C
:1056E000FAF760FF4148FBF700F9CDF8F0044948AC
:1056F0004069CDF8EC043D48DDF8EC24DDF8F01409
:1057000090470A2003F02AF9142003F027F900E05B
:105710002FE04148007860B300203F4908708021A5
:105720003248FBF784F92E4890F8B91090F8B82069
:1057300090F8B7002A4B93F8B630CDE90730CDE9A1
:105740000921274890F8B52090F8B400244991F831
:10575000B910234B93F8B830CDE90331CDE90502F8
:105760001F4890F8B71090F8B6001D4A92F8B5207F
:1057700054E073E0A00000207B227375625F6964CF
:10578000223A2225303258253032582530325825D9
:1057900030325825303258222C2268625F74696D8D
:1057A00065223A36307D0000A8000020A8D9000804
:1057B000170000207B2276223A22312E302E302212
:1057C0002C226D223A302C22636170223A307D0007
:1057D00025730000580000205C0000209E0000207F
:1057E000542200209000002004240020FC110020FE
:1057F00074757961206E6F64654C6973742072658D
:10580000636F7264207265616C65733A25642E0A59
:1058100000000000E4EF00089F000020CDE9002018
:105820000291FE4890F8B4000346FD4A8021CDF86D
:10583000F004FC48FAF7B6FEFA48FBF756F8CDF844
:10584000F004F9484069CDF8EC04F648DDF8EC24A2
:10585000DDF8F01490470A2003F080F80AE606F01D
:1058600049F94FF4D871F148FBF703F902E6DDF886
:105870000405B0F8FA02002875D00020CDF8000524
:10588000CDF8F804CDF8FC04CDF8F404CDF8F0041C
:10589000DDF804054078CDF8EC0440210DF2AC4071
:1058A000FBF7E7F8DDF80405B0F8FA12DDF8EC04D0
:1058B000401C081A80B2CDF8A8040020CDF8A4043A
:1058C000CDF8A004CDF89C044F20CDF8980400201A
:1058D000CDF89404CDF890040DF59F61DDF8040532
:1058E000001D04F085FA0DF2F441DDF80405801C7A
:1058F00004F0A7FA0522CE490DF59F60FAF7C9FF1B
:1059000000286ED101221921032002F023FB00BFE1
:10591000DDF8EC04401CDDF8A014084480B2CDF89A
:10592000A004DDF80405411CDDF8A004084400686B
:10593000CDF89404DDF8A004001D80B2CDF8A004D9
:10594000DDF80405401CDDF8A0140844CDF89C04E3
:105950009DF8F404392807D03A282CD03B2865D08C
:10596000402877D1AFE0FDE39DF8940401280FD0E3
:105970000D281DD10220AF494870DDF89C04007845
:1059800010B10720087002E00020AA49087010E05A
:105990000220A8494870A848007800F00600DDF809
:1059A0009C14097801F001010843A249087000E045
:1059B00000BF00BFD4E09DF89404012812D0022853
:1059C00020D00D282FD102209A494870DDF89C0480
:1059D000007810B10720087002E00021954801709E
:1059E00022E0E2E00220934948709348007800F0FA
:1059F0000600DDF89C14097801F0010108438D4987
:105A0000087011E002208B4948708B48007800F044
:105A10000501DDF89C04007800F0010041EA400037
:105A20008449087000E000BF00BF99E09DF894042D
:105A3000012814D0022823D0032832D00D283FD1CA
:105A400002207C494870DDF89C04007818B10720DA
:105A5000087003E083E000207649087031E00220FE
:105A6000744948707448007800F00600DDF89C1412
:105A7000097801F0010108436E49087021E0FCE358
:105A800002206C4948706C48007800F00501DDF890
:105A90009C04007800F0010041EA4000654908706C
:105AA0000FE0022063494870DDF89C04007800F0A4
:105AB00001016148007861F39F005E49087000E0D1
:105AC00000BF00BF4CE00020CDF88C040DF28C40EC
:105AD00002F0A4FC9DF89404652829D004DC012878
